S02B00006D796F2D636F72652D6170706C69636174696F6E2D5245565F432D6E6F2D636865636B73756D2E680C
S224010000000001206D22010001300200513002005130020051300200513002005130020067
S2240100205130020051300200513002005130020051300200513002005130020051300200A2
S224010040693902009D390200D1390200053A020051300200513002005130020051300200C5
S224010060513002005130020051300200513002005130020051300200513002005130020062
S224010080F938020051300200513002005130020051300200193002005130020051300200CA
S2240100A0D13D0200513002005130020051300200513002005130020051300200692E02007F
S2240100C0692E020051300200513002005130020051300200513002005130020051300200EC
S2240100E05130020051300200513002005130020051300200513002005130020051300200E2
S2240101005130020051300200513002005130020051300200513002005130020051300200C1
S2240101205130020051300200796A010099CD0100B9CD0100D9CD01000DCE010041CE01004E
S224010140513002005130020051300200513002005130020051300200513002005130020081
S224010160513002005130020051300200513002005130020051300200513002005130020061
S214010180513002005130020001000100050001005B
S2240101F8FFFFFFFF600204006B0000007B0D0A20202276657273696F6E223A207B0D0A20EC
S224010218202020226D616A6F72223A20312C0D0A20202020226D696E6F72223A20312C0D88
S2240102380A20202020227061746368223A20352C0D0A202020202268617264776172655FA1
S21C0102587265766973696F6E223A20310D0A20207D0D0A7D0D0A0000ED
S2240104100000000000000000000000000000000000000000000000000000000000000000C6
S2240104300000000000000000000000000000000000000000000000000000000000000000A6
S224010450000000000000000000000000000000000000000000000000000000000000000086
S224010470000000000000000000000000000000000000000000000000000000000000000066
S22401100081F0004102E000BF83F0004330B54FEA41044FEA430594EA050F08BF90EA020FF9
S2240110201FBF54EA000C55EA020C7FEA645C7FEA655C00F0E2804FEA5454D4EB5555B8BFCF
S2240110406D420CDD2C4480EA020281EA030382EA000083EA010180EA020281EA0303362D86
S22401106088BF30BD11F0004F4FEA01314FF4801C4CEA113102D0404261EB410113F0004FF0
S2240110804FEA03334CEA133302D0524263EB430394EA050F00F0A780A4F10104D5F1200E2E
S2240110A00DDB02FA0EFC22FA05F2801841F1000103FA0EF2801843FA05F359410EE0A5F176
S2240110C020050EF1200E012A03FA0EFC28BF4CF0020C43FA05F3C01851EBE37101F0004582
S2240110E007D54FF0000EDCF1000C7EEB00006EEB0101B1F5801F1BD3B1F5001F0CD34908FC
S2240111005FEA30004FEA3C0C04F101044FEA445212F5800F80F09A80BCF1004F08BF5FEADA
S224011120500C50F1000041EB045141EA050130BD5FEA4C0C404141EB010111F4801FA4F1E4
S2240111400104E9D191F0000F04BF01460020B1FA81F308BF2033A3F10B03B3F120020CDA89
S2240111600C3208DD02F1140CC2F10C0201FA0CF021FA02F10CE002F11402D8BFC2F1200C02
S22401118001FA02F120FA0CFCDCBF41EA0C019040E41AA2BF01EB0451294330BD6FEA04043C
S2240111A01F3C1CDA0C340EDC04F11404C4F1200220FA04F001FA02F340EA030021FA04F38D
S2240111C045EA030130BDC4F10C04C4F1200220FA02F001FA04F340EA0300294630BD21FAAB
S2240111E004F0294630BD94F0000F83F4801306BF81F480110134013D4EE77FEA645C18BF89
S2240112007FEA655C29D094EA050F08BF90EA020F05D054EA000C04BF1946104630BD91EAC2
S224011220030F1EBF0021002030BD5FEA545C05D14000494128BF41F0004130BD14F580041F
S2240112403CBF01F5801130BD01F0004545F0FE4141F470014FF0000030BD7FEA645C1ABF9B
S224011260194610467FEA655C1CBF0B46024650EA013406BF52EA033591EA030F41F400218A
S22401128030BD00BF90F0000F04BF0021704730B54FF4806404F132044FF000054FF00001B7
S2240112A050E700BF90F0000F04BF0021704730B54FF4806404F1320410F0004548BF404203
S2240112C04FF000013EE700BF42004FEAE2014FEA31014FEA02701FBF12F07F4393F07F4F7D
S2240112E081F06051704792F0000F14BF93F07F4F704730B54FF4607401F0004521F000411F
S22401130020E700BF50EA010208BF704730B54FF000050AE050EA010208BF704730B511F092
S224011320004502D5404261EB41014FF4806404F132045FEA915C3FF4DCAE4FF003025FEAA9
S224011340DC0C18BF03325FEADC0C18BF033202EBDC02C2F1200300FA03FC20FA02F001FAB5
S22401136003FE40EA0E0021FA02F11444C1E600BF70B54FF0FF0C4CF4E06C1CEA11541DBF20
S2240113801CEA135594EA0C0F95EA0C0F00F0DEF82C4481EA030621EA4C5123EA4C5350EA6E
S2240113A0013518BF52EA033541F4801143F4801338D0A0FB02CE4FF00005E1FB02E506F0A6
S2240113C00042E0FB03E54FF00006E1FB03569CF0000F18BF4EF0010EA4F1FF04B6F5007F07
S2240113E064F5407404D25FEA4E0E6D4146EB060642EAC62141EA55514FEAC52040EA5E509A
S2240114004FEACE2EB4F1FD0C88BFBCF5E06F1ED8BEF1004F08BF5FEA500E50F1000041EBCD
S224011420045170BD06F0004646EA010140EA020081EA0301B4EB5C04C2BFD4EB0C0541EAA0
S224011440045170BD41F480114FF0000E013C00F3AB8014F1360FDEBF002001F0004170BD30
S224011460C4F10004203C35DA0C341BDC04F11404C4F1200500FA05F320FA04F001FA05F232
S22401148040EA020001F0004221F0004110EBD37021FA04F642EB06015EEA430E08BF20EAA4
S2240114A0D37070BDC4F10C04C4F1200500FA04F320FA05F001FA04F240EA020001F00041C8
S2240114C010EBD37041F100015EEA430E08BF20EAD37070BDC4F1200500FA05F24EEA020EA8
S2240114E020FA04F301FA05F243EA020321FA04F001F0004121FA04F220EA020000EBD37025
S2240115005EEA430E08BF20EAD37070BD94F0000F0FD101F00046400041EB010111F4801F2F
S22401152008BF013CF7D041EA060195F0000F18BF704703F00046520043EB030313F4801F21
S22401154008BF013DF7D043EA0603704794EA0C0F0CEA135518BF95EA0C0F0CD050EA410607
S22401156018BF52EA4306D1D181EA030101F000414FF0000070BD50EA410606BF104619465F
S22401158052EA430619D094EA0C0F02D150EA013613D195EA0C0F05D152EA03361CBF104600
S2240115A019460AD181EA030101F0004141F0FE4141F470014FF0000070BD41F0FE4141F423
S2240115C0780170BD70B54FF0FF0C4CF4E06C1CEA11541DBF1CEA135594EA0C0F95EA0C0F7C
S2240115E000F0A7F8A4EB050481EA030E52EA03354FEA013100F088804FEA03334FF08055E8
S22401160045EA131343EA12634FEA022245EA111545EA10654FEA00260EF000419D4208BF33
S224011620964244F1FD0404F5407402D25B084FEA3202B61A65EB03055B084FEA32024FF40A
S22401164080104FF4002CB6EB020E75EB030E22BFB61A754640EA0C005B084FEA3202B6EB50
S224011660020E75EB030E22BFB61A754640EA5C005B084FEA3202B6EB020E75EB030E22BF1E
S224011680B61A754640EA9C005B084FEA3202B6EB020E75EB030E22BFB61A754640EADC008F
S2240116A055EA060E18D04FEA051545EA16754FEA06164FEAC30343EA52734FEAC2025FEA50
S2240116C01C1CC0D111F4801F0BD141EA00014FF000004FF0004CB6E711F4801F04BF01437D
S2240116E00020B4F1FD0C88BFBCF5E06F3FF6AFAEB5EB030C04BFB6EB020C5FEA500C50F136
S224011700000041EB045170BD0EF0004E4EEA113114EB5C04C2BFD4EB0C0541EA045170BDF2
S22401172041F480114FF0000E013C90E645EA060E8DE60CEA135594EA0C0F08BF95EA0C0FCF
S2240117403FF43BAF94EA0C0F0AD150EA01347FF434AF95EA0C0F7FF425AF104619462CE784
S22401176095EA0C0F06D152EA03353FF4FDAE1046194622E750EA410618BF52EA43067FF492
S224011780C5AE50EA41047FF40DAF52EA43057FF4EBAE12E74FF0FF3C06E000BF4FF0010C2E
S2240117A002E000BF4FF0010C4DF804CD4FEA410C7FEA6C5C4FEA430C18BF7FEA6C5C1BD0EE
S2240117C001B050EA410C0CBF52EA430C91EA030F02BF90EA020F0020704710F1000F91EA3A
S2240117E0030F58BF994208BF90422CBFD8176FEAE37040F0010070474FEA410C7FEA6C5C21
S22401180002D150EA013C07D14FEA430C7FEA6C5CD6D152EA033CD3D05DF8040B704700BF48
S2240118208446104662468C461946634600E000BF01B5FFF7B7FF002848BF10F1000F01BD02
S2240118404DF808EDFFF7F4FF0CBF012000205DF808FB00BF4DF808EDFFF7EAFF34BF01200F
S22401186000205DF808FB00BF4DF808EDFFF7E0FF94BF012000205DF808FB00BF4DF808ED37
S224011880FFF7CEFF94BF012000205DF808FB00BF4DF808EDFFF7C4FF34BF012000205DF858
S2240118A008FB00BF4FEA410212F5001215D211D56FF47873B3EB625212D94FEAC12343F023
S2240118C0004343EA505311F0004F23FA02F018BF404270474FF00000704750EA013005D149
S2240118E011F0004008BF6FF0004070474FF00000704700BF4FEA4102B2F1E04324BFB3F502
S224011900001CDCF1FE5C0DD901F0004C4FEAC0024CEA5070B2F1004F40EB830008BF20F0F3
S2240119200100704711F0804F21D113F13872BCBF01F00040704741F480114FEA5252C2F1C0
S2240119401802C2F1200C10FA0CF320FA02F018BF40F001004FEAC1234FEAD32303FA0CFC1A
S22401196040EA0C0023FA02F34FEA4303CCE77FEA625307D150EA01331EBF4FF0FE4040F4F5
S2240119804000704701F0004040F0FE4040F40000704700BF80F0004002E000BF81F00041FE
S2240119A042001FBF5FEA410392EA030F7FEA226C7FEA236C6AD04FEA1262D2EB1363C1BF5D
S2240119C0D218414048404140B8BF5B42192B88BF704710F0004F40F4000020F07F4018BF0E
S2240119E0404211F0004F41F4000121F07F4118BF494292EA030F3FD0A2F1010241FA03FC39
S224011A0010EB0C00C3F1200301FA03F100F0004302D5494260EB4000B0F5000F13D3B0F198
S224011A20807F06D340084FEA310102F10102FE2A51D2B1F1004F40EBC25008BF20F00100CE
S224011A4040EA03007047490040EB000010F4000FA2F10102EDD1B0FA80FCACF1080CB2EB4D
S224011A600C0200FA0CF0AABF00EBC25052421843BCBFD0401843704792F0000F81F4000163
S224011A8006BF80F400000132013BB5E74FEA41037FEA226C18BF7FEA236C21D092EA030F3A
S224011AA004D092F0000F08BF0846704790EA010F1CBF0020704712F07F4F04D1400028BFE7
S224011AC040F00040704712F100723CBF00F50000704700F0004343F0FE4040F4000070472E
S224011AE07FEA226216BF08467FEA23630146420206BF5FEA412390EA010F40F480007047EF
S224011B004FF0000304E000BF10F0004348BF40425FEA000C08BF704743F0964301464FF0A9
S224011B2000001CE050EA010208BF70474FF000030AE000BF50EA010208BF704711F00043FE
S224011B4002D5404261EB41015FEA010C02BF84460146002043F0B64308BFA3F18053A3F55E
S224011B600003BCFA8CF2083AA3EBC25310DB01FA02FC634400FA02FCC2F12002BCF1004FEF
S224011B8020FA02F243EB020008BF20F00100704702F1200201FA02FCC2F1200250EA4C0009
S224011BA021FA02F243EB020008BF20EADC70704773B96AB9002908BF0028BCBF00204FF0CB
S224011BC00041C4BF6FF000414FF0FF3000F08AB882B0EC462DE9005000F058F8DDF804E038
S224011BE002B00CBC704700BF4BB942B9002908BF002802D04FF0FF31084600F073B882B0FC
S224011C00EC462DE9005000F057F8DDF804E002B00CBC704707EE900AF5EEC07AF1EE10FA68
S224011C2008B503D4BDE8084000F00CB8B1EE670A10EE100A00F006F8424261EB41031046E9
S224011C40194608BD70B5FFF73FFB00230022C3F6F05304460D46FFF78BFB00F045F8064632
S224011C60FFF710FB00230022C4F2F013FFF780FB02460B4620462946FFF7C6F900F034F8AF
S224011C80002202431046314670BD00BFF8B5164604460D461F4600F047F806FB01F300FBF4
S224011CA00737A6FB0023FB18A21A65EB0303069CC4E90023F8BD00BFF8B5164604460D466B
S224011CC01F4600F08FF900FB07F7A0FB062306FB0177FB18A21A65EB0303069CC4E9002354
S224011CE0F8BD00BF704700BF4A0011D212F5001211D20DD56FF47873B3EB62520ED44FEA2E
S224011D00C12343F0004343EA505323FA02F070474FF00000704750EA013002D14FF0FF302B
S224011D2070474FF00000704700292DE9F00F1D46C0F29D800024002DC0F2948080460F464E
S224011D4094461E46E3BB8A4255D9B2FA82F747B1C7F1200520FA05F601FA07F1BA40314337
S224011D60B840170CB1FBF7F6030C1FFA82FC07FB16110CFB06F543EA01439D4208D9711E18
S224011D809B1880F013819D4240F21081023E9B18591BB1FBF7F507FB151380B20CFB05FC81
S224011DA040EA03418C4507D96B1E8A1880F00081944540F2FD80023D45EA0641002503E09D
S224011DC08B420CD9002529460A462B4614B1524263EB430310461946BDE8F00F7047B3FA4C
S224011DE083F5002D40F087808B4201D38242EAD800250121E8E712B90126B6FBF2F2B2FA91
S224011E0082F6002E39D18E1A130C1FFA82FC0125B6FBF3F703FB17614FEA10490CFB07F8DF
S224011E2049EA0146B04506D9791EB61802D2B04500F2D3800F46C8EB0606B6FBF3F103FB34
S224011E40116380B20CFB01FC40EA03439C4506D94E1E9A1802D2944500F2C280314641EA01
S224011E600741B1E7E443524263EB430366E7404261EB41014FF0FF345DE7B240C6F1200948
S224011E8021FA09F720FA09F5130C01FA06F1B7FBF3F845EA01091FFA82FC03FB18774FEAC5
S224011EA019410CFB08F541EA0747B040BD420AD9BF1808F1FF3680F08E80BD4240F28B80B4
S224011EC0A8F10208BF18791BB1FBF3F503FB15171FFA89F90CFB05F649EA07418E4206D969
S224011EE06F1E891871D28E426FD9023D89188E1B45EA08458CE7C5F1200122FA01F306FAF4
S224011F0005F61E4327FA01F24FEA164907FA05F720FA01F1B2FBF9F80F433B0C1FFA86FADA
S224011F2009FB18220AFB08FB43EA024293450CFA05FC08D9921908F1FF314AD2934548D93B
S224011F40A8F102089219CBEB0203B3FBF9F109FB1132BFB20AFB01FA47EA02439A4506D9EE
S224011F604A1E9B1933D29A4531D902399B1941EA08410F0C1FFA8CF808FB07F68AB24FEAC1
S224011F801C4C08FB02F80CFB026202EB18420CFB07FC964288BF0CF5803CCAEB03030CEB8C
S224011FA0124C63450ED305D000250DE70E46EFE61D4601E71FFA88F800FA05F008EB024510
S224011FC0A842F1D201390025FEE63D468FE71146CDE78846B7E7B04675E7023FB6182AE729
S224011FE002393CE72DE9F007144605460E46002B3DD18A4249D9B2FA82F747B1C7F120015A
S22401200020FA01F206FA07F6BC401643BD40220CB6FBF2F02F0CA1B202FB106601FB00F3AD
S22401202047EA0646B34208D9471E361980F0F880B34240F2F58002383619F61AB6FBF2F3E0
S22401204002FB1362ADB201FB03F145EA0242914207D95E1E121980F0E580914240F2E280B0
S224012060023B43EA00400021BDE8F00770478B4243D8B3FA83F4002C42D18B4202D382428B
S22401208000F2DF8000210120EEE712B90127B7FBF2F4B4FA84F2002A40F088800A1B230C6D
S2240120A0A7B20121B2FBF3F603FB16224FEA154C07FB06F04CEA0242904207D9121906F1F3
S2240120C0FF3C02D2904200F2CE806646121AB2FBF3F003FB1023ADB207FB00F745EA034373
S2240120E09F4207D9421E1B1980F09E809F4240F29B80023840EA0640B6E700210846B3E779
S224012100C4F1200622FA06F503FA04F32B434FEA134C21FA06F501FA04F120FA06F6B5FB01
S224012120FCF746EA010A1FFA83F80CFB17554FEA1A4108FB07F941EA0545A94502FA04F278
S22401214003D97E1EED187FD33746C9EB0501B1FBFCF60CFB16151FFA8AFA08FB06F84AEAD1
S2240121600541884503D9751EC91873D32E4646EA0746370C1FFA82FC0CFB07F5120CB3B25F
S2240121800CFB03FC02FB035303EB1C4302FB07F29D4288BF02F58032C8EB010102EB1342D7
S2240121A091424BD342D0304600215DE79440C2F1200521FA05F6230C20FA05F701FA02F146
S2240121C0B6FBF3FC39430D0CA7B203FB1C6645EA064607FB0CF8B04500FA02F508D9361954
S2240121E00CF1FF303DD2B0453BD9ACF1020C3619C8EB0602B2FBF3F003FB10268AB242EAB4
S224012200064207FB00F1914206D9461E121926D2914224D902381219521A40EA0C4141E704
S22401222038460AE733461CE7104663E71FFA8CFC00FA04F00CEB03439842B4D2701E002132
S22401224012E7214620460FE7A9457FF67DAF023FED187AE7884589D9023EC91887E7304652
S224012260DAE78446C4E7023E12192FE71CF066FA10F070FF40F240204FF62432C1F6FF7073
S224012280C1F6FF720021121A17F060FB1CF032FA1CF066FA1CF0CCF91CF070FA40F24021E3
S2240122A0C1F6FF71002012F0E9F817F001FB00BFFEE700BFF8B53D4B1A78012A0FD002D3E2
S2240122C0022A16D0F8BD3A480178022936D0394B374958680122BDE8F84010F0D1BC344937
S2240122E0087803282DD0334B5868BDE8F84010F0C7BC314C314D206800EB4002C0EBC20372
S224012300E918E85C0A282FD0CA780D2A31D021684A1C102A226041D0294A216810688142D4
S22401232040D02068234A00EB4001C0EBC1035068E9181722BDE8F84010F0A2BC01221A701D
S224012340C5E71C491C4A48680221197000231360116801EB4102C1EBC20318491722C9187A
S224012360BDE8F84010F08CBC1649174B0A681A60D7E74B78192BCAD108780628C7D1134E7E
S2240123800A79336841F61060D7188742C9D810480531C01817F0B9FA3760C2E7064B002048
S2240123A01860B9E70B4803F093F9BAE73004FF1F3104FF1F58CDFF1F3404FF1F6002FF1FCE
S2240123C05804FF1F94F3FF1F3804FF1F8CF3FF1F7CD5FF1F3462030038B54CF65854C1F647
S2240123E0FF740025606810F0B9FC606810F0ECFC40F25C2240F25C43C1F6FF72C1F6FF7340
S224012400642015601D6004F0BFFB49F61420C0F203002946BDE838400AF0AEBBF0B5534C37
S224012420534D544E544960680023012287B033602B7010F025FC514801210AF09DFB287836
S224012440012803D030BF29780129FBD104F032FB90F8207090F821600022FF2F019202923B
S2240124600392049205927DD0FF2E7BD0002000F053FF003018BF012005238DF80C708DF897
S2240124800D60ADF80A308DF80E0001AE0FCE3C4FC7F807100721C7F8030039703068C7F880
S2240124A00B20152179701421B970C7F80F30C7F8130000E030BF17226068314910F010FC48
S2240124C00828F7D02F4A30491346032003F8010B08684968C2F80100596000E030BF1722ED
S2240124E06068284910F0FCFB0828F7D004F0E2FA264B0A221A7002780146581CFF2A08BF93
S2240125002349162217F028FA172260681F4910F0E7FB0828F8D01F490220087000E030BFD4
S224012520172260681B4910F0DBFB0828F7D02B78022B03D030BF2B78022BFBD101F092FFB3
S2240125400278FF2A02D0002003F050F91248134B016813481960134B002201210260196032
S22401256007B0F0BD1646174680E700BF58CDFF1F3004FF1F8CF3FF1F3104FF1F149A0300DC
S2240125804004FF1F1804FF1F880101004402FF1F50E80200D003FF1F94F3FF1F3804FF1F81
S2240125A05804FF1F5C02FF1F38B54CF65854C1F6FF740025606810F0D1FB606810F004FC99
S2240125C040F25C2240F25C43C1F6FF72C1F6FF73642015601D6004F0D7FA49F61420294606
S2240125E0C0F203000AF0C8FA4FF4FA7004F0CCFABDE83840FFF712BFF8B5474E336833B158
S2240126004648474902680C68131BC82B15D8454C45482368026893427CD003EB4305C3EB92
S224012620C50042490A5C0D18101F072808D8DFE800F0181F3C440762076710F0D5FCE6E798
S2240126403B4803F045F84FF47A7004F09DFA10F0CBFC2368591C102908BF0021216001207F
S224012660F8BD00F0B9FC334A236801201060F1E7314C304D00F0B4FC606810F06FFB6068F5
S22401268010F0A2FB0024642034602C6004F07CFA21462A480AF070FA4FF4FA7004F074FA19
S2240126A0FFF7BCFE2C600120F8BD69781929D1D1E81C00F0ABFC2368CCE76B78002BC8D0BE
S2240126C068781F4916F0BEFF01260CE0EF19407816F0B8FF7B781A49002BBAD0787816F058
S2240126E0B1FF172EB5D0A819771C427814497E1C002AEBD1ADE7681C00F098F82368A9E7BC
S22401270004F0E0F9691C202217F026F904F0FCF923689FE70020F8BD5C02FF1F94F3FF1F09
S2240127203804FF1F5804FF1F3404FF1F6002FF1FAC6103005C04FF1F58CDFF1F149A030067
S2240127408C01FF1F2DE9F843174B1B6807460E460BB9BDE8F883DFF858E0DFF85880DEF879
S2240127600000124D00EB400CC0EBCC0C08EB0C04D0F101034FF0080938BF002308F80C906C
S2240127801146E01C32466770A670CEF8003017F0BCF800E030BF17226868214610F0A0FAF1
S2240127A00828F7D0BDE8F8835C02FF1F58CDFF1F3C04FF1FE803FF1F2DE9F843174B1B68A0
S2240127C007460E460BB9BDE8F883DFF858E0DFF85880DEF80000124D00EB400CC0EBCC0CC1
S2240127E008EB0C04D0F101034FF0090938BF002308F80C901146E01C32466770A670CEF886
S224012800003017F082F800E030BF17226868214610F066FA0828F7D0BDE8F8835C02FF1FCF
S22401282058CDFF1F3C04FF1FE803FF1FF0B585B0064603F0D5FF054608B105B0F0BD2A4C1F
S224012840606911F061FEFFF7C7FDC82004F09CF90121606810F0DEFA4FF42043C4F20603F7
S224012860012205215D73214800911346204916F043FF87B200E030BF60681C493A4610F080
S2240128802FFA0828F7D0B578707872793379F778367818490195029000970396164816F02C
S2240128A02BFF85B200E030BF606813492A4610F017FA0828F7D0114E114D0FCE0FC532683E
S2240128C02A7000E030BF102260680D4910F008FA0828F7D00B4802F0FBFE02F03FFA05B022
S2240128E0BDE8F04002F0ACBC58CDFF1FA004FF1F5CE8020074E802008004FF1F98E80200D6
S2240129006004FF1F1862030000B5022883B001D003B000BD00238DF8063006238DF804309F
S22401292023200123032101AA8DF80530FFF744FFEEE700BF254B0122022830B51A6098BF61
S224012940234B054698BF1A5C224888BFFF220229027098BF20480C4698BF425C1F4988BFC7
S224012960FF2283B001200A7002F0EEFEC82064210AF076FA782000210AF072FAB4214FF476
S22401298096700AF06DFA782000210AF069FAFF214FF4FA700AF064FA0123022D8DF8003087
S2240129A09ABF0B4B5B5DFF23022C8DF801309CBF094B1B5D6A4688BFFF23232003218DF878
S2240129C00230FFF7F9FE03B030BD00BFCC04FF1FB0E802000000FF1FACE802000100FF1F18
S2240129E000B5032383B098428DF804300AD004D9052807D010D2042305E0012802D00ED9A5
S224012A00022300E003462320032101AAADF80530FFF7D2FE03B000BD4FF6FF73F3E700238C
S224012A20F1E700BF30B5254D2B78FF2B83B007D0234C2078002833D1224A00202070906389
S224012A40214BFF2400202C701C7002F07DFE1F490868A8B14FF4FA7021460AF001FA78205A
S224012A6000210AF0FDF94FF49670B4210AF0F8F9782000210AF0F4F9C82064210AF0F0F946
S224012A800023ADF800301C468DF802302320022303216A468DF80030FFF78EFE03B030BD0C
S224012AA002AA00230521ADF80430232002F8041D03218DF80630FFF77FFEBDE70000FF1FD0
S224012AC0C004FF1F5480FF1F0100FF1F788DFF1F08B5174B17480021196009F0F3FB08B122
S224012AE001F0C4FC01210022124809F09DFC11481149002209F0C0FC0E481049002209F09B
S224012B00C3FC0C480E49002209F0C6FC09480D49002209F0C9FC0C490C4BFF220A700C4945
S224012B2000200A7018600B4A0B4B1070186008BD788DFF1FD404FF1F35290100252A01004D
S224012B40E1290100092901000000FF1FCC04FF1F0100FF1FC004FF1FD004FF1F214B10B501
S224012B6001221C681A6000F0F5FFD0B102F032F908B124B110BD02F0F1F8002CFAD103F08C
S224012B8099FF90F82010012926D041B9164B90F821001A68904207D314480378B3B92246E2
S224012BA007E000F089FEE1E7114941F6106404FB001201210F4809F037FC0F4A0F4BFF205C
S224012BC010700F4A00211960107010BD01200D4902F074FE2246ECE790F8210000F09CFBE9
S224012BE00246E6E7788DFF1FE0650300EC00FF1FE4650300D404FF1F0000FF1FCC04FF1FF7
S224012C000100FF1FB4E80200044B0549002018600A78FF2A01D0FFF705BF7047788DFF1FAC
S224012C200000FF1F48F67853C1F6FF731868704710B503F03FFF90F82040012C1AD0FCB95D
S224012C40104A90F821301068834209D20E4A41F6106101FB03210D48BDE8104009F072BB93
S224012C600B4B19780029F6D00A49012002F026FE2146F0E790F8210000F04EFB0146EAE7B6
S224012C800021E8E7E0650300E4650300D404FF1FEC00FF1FB4E8020070B5274B1A78FF2ABA
S224012CA082B0044610D000282AD0244D2E786EB1234B2C701A682348234902600A68234BB5
S224012CC023491A600120886302B070BD02A804216A46ADF8006000F8081D232003218DF890
S224012CE00260FFF769FD9620FF210AF0B9F8782031460AF0B5F83220FF210AF0B1F8D7E706
S224012D001A78FF2AE0D00D4D2B7883B102AAADF80400052002F8040D032123208DF806405A
S224012D20FFF74AFD4FF4967096210AF099F8084A002129709163C7E70000FF1FC004FF1F17
S224012D4094F3FF1FD004FF1FC404FF1FC804FF1F5480FF1F70B5144B1A78FF2A82B0054658
S224012D600E4606D0114C207828B9114A00232370936302B070BD3DB1002EF6D14FF496703B
S224012D8096210AF06DF8F0E702AA0521ADF80450232002F8041D03218DF80650FFF70CFD19
S224012DA0002EE2D1EAE700BF0000FF1FC004FF1F5480FF1F70B5224C2378012B82B00646D2
S224012DC00D4614D01F4B186808B902B070BD3146EAB21D4809F070FB1C490A78FF2A01D06F
S224012DE003F074FC1A4B002118681960EDE71948194902680B68D01A00EB800140F2CF72AE
S224012E00B2EB410FDED2114B1878FF28DAD0217889B102AA00230520ADF80430032102F894
S224012E20040D23208DF80630FFF7C6FC4FF4967096210AF015F8094A002121709163C1E71D
S224012E40C004FF1F788DFF1FD404FF1F0000FF1FCC04FF1F94F3FF1FD004FF1F5480FF1FDC
S224012E60014640F2D440C1F6FF7009F01FBC00BF70B584B0054605F035FF254C254E84EDE4
S224012E80000A3378012B11D0284605F011FF236828468DED010A029305F034FF1E4801A9AC
S224012EA08DED030A09F004FC04B070BD1B481C4994ED007AD0ED007A0A7837EE670A012A6E
S224012EC0DFED180A08BFB1EE400AB4EEE00AF1EE10FAD9D8144B1878FF28D5D0317891B182
S224012EE004AA00230520ADF80030032102F8100D23206A468DF80230FFF75EFC4FF4967083
S224012F00962109F0ADFF094A002131709163BBE7C404FF1FC004FF1FD404FF1FC804FF1FFC
S224012F200100FF1FC7B832BE0000FF1F5480FF1F074B1978FF2910B5044602D009F0F8FF11
S224012F4000B110BD03482146BDE8104009F0B2BB0000FF1FD404FF1F70B51B4B186882B08F
S224012F6030B31A490A78FF2A22D0194C0D7823788DF8055023200321012601AA8DF8063015
S224012F808DF80460FFF718FC1248038A032100248B428DF8041004D00CD9052B01D00ED209
S224012FA004232320032101AAADF80530FFF704FC02B070BDB342F4D004D90223F1E74FF64B
S224012FC0FF73EEE72346ECE7788DFF1F0000FF1F0100FF1FD404FF1F012002F007BC00BF7D
S224012FE008B5FFF7BBFD00210120FFF7B3FE002000F0B6FD002001F0F3FE002003F0E0FBC4
S2240130000020BDE8084002F0F1BB00BF70B503780446581E0D282AD8DFE810F02A0039007F
S2240130204C005F00660071000E00AF00C000C500CA00D4002900B4006088002840F0EF809C
S224013040B4F80500002840F0E6802089002840F0DE80B4F80B00002840F0D580E0890028A7
S22401306040F0CD80B4F81100002840F0C08070BDA07800F075FDE07801F0B2FE2379012B10
S22401308015D0FFF7C1FDBDE87040FFF765BFA078B4F80510E279237A00F09EFDB4F8091001
S2240130A0E078E27A01F0DEFE21790129E9D1FFF755FDE8E7A078022800F0C280032800F065
S2240130C09B800128D3D1C820FF2109F0C9FE64200021BDE8704009F0C3BE5C4801210022DE
S2240130E0BDE8704009F0E2BC02F03EF90028BED0574841F28831BDE8704002F003BB01F07E
S224013100ADF9A51C40EA0506B20740F09C80011DA21D904238BF8D42C0F09580D4F80230D0
S2240131200360D4F80650012645600822A3189119D5439E78531C6D188B42865405F00105E5
S22401314010D02DB1E2189278C25401338B4209D0E6185A1CB678A518C6540233AD788B4217
S2240131608554F5D101F044F9002839D038484FF4FA61BDE8704002F0C5BAA078BDE87040FA
S22401318002F096BB3349B4F803200B689A424AD031490020BDE8704002F090BBA078BDE849
S2240131A0704003F00DBBA078BDE87040FFF774BDA07800287FF45BAF78200146BDE8704019
S2240131C009F04EBE03F07EFCA27880F82020E37880F8213003F098FCBDE87040FFF728BDCA
S2240131E01E484FF47A71BDE8704002F08BBAE17CBDE8704009F034BE4FF4966064E7217CEB
S22401320009F02EFE2EE7617B09F02AFE26E7A17A09F026FE1DE7E17909F022FE15E721791F
S22401322009F01EFE0CE7A07800F01CF800283FF41EAF0B49A2780020BDE8704002F03EBB6E
S2240132404FF42F7040E7092600226FE7E4990300346203008CF3FF1F10E902006062030042
S224013260ECE8020070B5224E224C3378022B82B0054617D8002020608DB11F4A1F49136801
S224013280A3EB45348C422BD334B12046022101F043FA70B13278F2B9012002B070BD1848E3
S2240132A00468F1E71749236803202A4602F006FBE0E72046144941F6106201F0FDF90446EF
S2240132C00028E7D131780129E7D902200F4902F0F5FA2046E1E701200D4902F0EFFADBE7D8
S2240132E0803900912A460B49234602F0E7FAD3E7EC00FF1F8CF3FF1F58990300C80204005B
S224013300809903004CE902007CD5FF1FE4E90200BCE9020088E9020030B5024683B0F8B1F3
S2240133201749184B0868A0EB423098421DD30378FF2B13D10122114641F6106507E0C35CD8
S224013340FF2B0BD1035DFF2B08D1AA420BD0415C531C941C0332FF291146F0D003B030BD67
S224013360094A1068E3E70020F8E7A3F18001009103460649002002F0A1FA0020D7E700BF2B
S22401338058990300C80204008099030088E9020010B52B4C2378022B22D80020294947F20D
S2240133A0A00201F0E9F938BB2078022829D8264903C9090301F0E8F900282DD12278022AD7
S2240133C02FD84FF480304FF4E02101F0DDF900B910BD1E494FF4803202F014FB012010BD11
S2240133E003201B4902F06AFA0020164947F2A00201F0C2F90028D7D0154902F003FB0120A6
S22401340010BD0320134902F059FA0F4903C9090301F0BAF90028D1D00E4902F0F3FA012021
S22401342010BD032009494FF4803202F047FA4FF480304FF4E02101F0A7F90028C8D0C8E7E5
S224013440EC00FF1F04EA020068990300F45A0300A05A0300C85A0300022808B503D0032810
S2240134600BD0012008BD064B93E8030001F054F9D0F1010038BF002008BDFFF789FFF7E77E
S224013480709903004CF65853C1F6FF73586911F075B800BF2DE9F0418EB003F07BFA002841
S2240134A000F0C48003F076FA0446C0687C4DC30740F18A802A78012A03D90220794902F0B0
S2240134C0FDF9794802F004F90021784809F054FB4FF4FA7003F058FB0121744809F04CFB06
S2240134E00FF04AFA94E80F000AAC84E80F000D9B204623F001010D9103F05AFA28780128F6
S22401350003D902206A4902F0D9F90FF06DFD2C78684A6948116847F29C0216F0E5F910F08C
S224013520FF0F4AD0012C03D90220644902F0C6F9634EDFF8C0817069624C10F0E5FF5A48FE
S22401354002F0C6F8D8F800702468029708AE06AF009701965C482146082204AB09F074FA6C
S22401356040BB9DF81030002B3CD02978022971D8564A5548D8F80030214609F0F7F9024654
S224013580002862D12878022869D8D8F800204E48029204AB082200970196214609F054FAF0
S2240135A09DF81020034608B9042A6ED00020484902F084F90EB0BDE8F081022CFAD90320B2
S2240135C0444902F07BF9F5E72C78022C28D839493948096847F29C0216F086F910F0FF0F66
S2240135E0A0D1E7E72B78022B29D8D8F8001036480291009701962146012204AB09F024FA46
S22401360080460028D6D19DF810000328D2D1FFF7BFFE024640B340462F4902F04FF9C9E7C6
S22401362003202E4902F04AF92C7871E72C4B0FCB0AAC84E80F00204603F0BAF932E70320EF
S2240136402849224602F03AF9CFE70020264902F035F9AFE70320254902F030F988E703202D
S224013660234902F02BF990E7224A174813680097029301962146042204AB09F0E5F9002807
S22401368098D19DF81010042994D12878012803D90220194902F012F90FF0A6FC8AE700BF7D
S2240136A0EC00FF1F2C5B030088620300149A0300405B03007899030004EA0200785B03005A
S2240136C058CDFF1F50990300AC00FF1F59340100505C0300C85C0300C85B0300645B03009F
S2240136E080E70200945B03000C5C0300F85B0300345C030090F3FF1F9C5C03004BF2BC136D
S224013700C1F6FF7310B41A68511C19601C684FF40040E305C4F20000DA0D48F6945102EBB2
S224013720C20300F58154C1F6FF7145F6E44200F5805001EB4301C0F203022161026010BC10
S224013740704700BF70B50C464C4D4D494D4E2C700123B0F57A7F0B60327005D8092800F241
S22401376087800A20002301E04FF47A704649474A474D484E086000201360286002F05EF9CB
S2240137803378032B4BD0C8214FF47A7002F0C0FC3C21B1EE040A4FF47A7002F045FC3221AE
S2240137A0B1EE040A4FF47A7002F03EFC7821B1EE040A4FF47A7002F037FC6421B1EE040A33
S2240137C04FF47A7002F030FCB421B1EE040A4FF47A7002F029FC9621B1EE040A4FF47A7041
S2240137E002F022FCF021B1EE040A4FF47A7002F01BFCC821B1EE040A4FF47A7002F014FCFA
S2240138004FF49671B1EE040A4FF47A7002F00CFC4FF47A70FA21B1EE040A02F005FC1E4A34
S2240138201E4913681E4E0B6022463360E4181D4B1D481C601D4B00251D601D4B4FF4007163
S2240138401D6000F02BFE1B48012109F095F910F0ADFD4FF4C040C4F203002E2242600168BF
S22401386041F001030360026842F48031016070BDB0F5FA7F94BF0023012377E7898DFF1F81
S224013880F8B1FF1FF0B1FF1FB0B1FF1F8C8DFF1FC0B1FF1F888DFF1FBCB1FF1F848DFF1F6A
S2240138A0FCB1FF1FB8B1FF1F948DFF1F808DFF1FACB1FF1F1C9A0300C82064211422FFF779
S2240138C041BF00BF2DE9F0477B4C7C49E06888B00FF03AFE7949E0680FF07CFE7849E06807
S2240138E00FF032FE7649E0680FF074FE754A764876490023642503700B70157000F0B2FD21
S2240139000378FF2B12D000F0ADFD0378FF2B05D06F480122026008B0BDE8F08702F060FFA5
S2240139200028F5D06B4801F0D3FEF1E702F058FF0028E8D0684FC82029461422FFF702FFE3
S224013940D7F800A03E685544B54205D9606910F015FE3A68AA42F9D3DFF89491D9F800607B
S22401396038680AF16E0A00215045009101910291039104910591069107915AD2574D884636
S224013980D9F80010B1424CD0F305D80DC200111835F8113099B211B9009B591C009113181A
S2240139A005EB43014B8899B211B9019B591C0191131805EB43018B8899B211B9029B591CA9
S2240139C00291131805EB4301CB8899B211B9039B591C0391131805EB43010B8999B211B9D8
S2240139E0049B591C0491131805EB43014B8999B211B9059B591C0591131805EB43018B89B2
S224013A0099B211B9069B591C0691101805EB4002D38999B211B90798421C079208F101087B
S224013A200136606910F0AAFD3B685345A8D34FEA6801009881421ADB019A914217DB029B34
S224013A40994214DB0398814211DB049A8A420EDC059B99420BDB0698814208DB079A9142DF
S224013A6005DB00F0FFFC0021017000F0C1FC48F220001B4A1B490023C4F204001360C0699A
S224013A800B70430207D54FF4C043C4F203031A6822F08000186048F22001C4F20401124886
S224013AA0CB6923F48002CA61002109F065F8D9F800000E49086026E758CDFF1F5800FF1F3B
S224013AC00400FF1F908DFF1FC4B1FF1F8A8DFF1FA8B1FF1FD861030094F3FF1F948DFF1F24
S224013AE0F8B1FF1F888DFF1F1C9A0300848DFF1FBCB1FF1F48F22002114908B5C4F2040224
S224013B0000230B60D0690F4A1370420207D54FF4C043C4F20303196821F08000186048F216
S224013B202003C4F204030848DA6922F48001D961002109F021F80548054B02681A6008BDC2
S224013B40F8B1FF1F888DFF1F1C9A0300BCB1FF1F848DFF1F4BF2F813C1F6FF73186870474A
S224013B6010B5184C207010B9FFF75CF830B1C82064211422BDE81040FFF7E4BD48F2200306
S224013B80114A2070C4F204031060D869410207D54FF4C041C4F203010B6823F080020A6037
S224013BA048F22001C4F204010848CB6923F48002CA61002108F0E0FF0548064B0168196029
S224013BC010BD00BF888DFF1FF8B1FF1F1C9A0300BCB1FF1F848DFF1FF8B5194C0D46164625
S224013BE01F46207010B9FFF71DF830B1284631463A46BDE8F840FFF7A5BD48F22003114AC3
S224013C002070C4F204031060D869400207D54FF4C041C4F203010B6823F080020A6048F2D8
S224013C202001C4F204010848CB6923F48002CA61002108F0A1FF0548054B01681960F8BD6D
S224013C40888DFF1FF8B1FF1F1C9A0300BCB1FF1F848DFF1F2DE9F001B54A4FF00108B8F1FA
S224013C60100F10465FFA88F337D002EB080512F8084015F8015CA542414608F1FF3C25D29F
S224013C80013B13F0010F15D0D9B202F808504B1E02F80C40C55C445CA5429C460AD315E002
S224013CA0075D465DB74211D257551655C55C445CA5420BD2555413F0FF0502F80C4005F193
S224013CC0FF34E1B201F1FF339C46E9D108F10108B8F1100F5FFA88F3C7D1117855789448F0
S224013CE0A942847800F08D80A54200F06481C078A94238BF2946844200F05A8101258C4210
S224013D002B4600D9214601251479A04200F0C4809D4200F21D8100F0AC80012550798442E3
S224013D2000F0C0809D4200F20B8100F09D8001259479A04200F0BC809D4200F2F48000F06D
S224013D408E800125D079844200F0B8809D4200F207817FD00125147AA04200F0B5809D42B0
S224013D6000F2028172D00125507A844200F0B2809D4200F2D48065D00125947AA04200F04E
S224013D80AF809D4200F2F88058D00125D07A844200F0AC809D4200F2F3804BD00125147B17
S224013DA0A04200F0A9809D4200F2EE803ED00125507B844200F0A6809D4200F2D98031D0BD
S224013DC00124927B904200F0A3809C4200F2C48024D00120984200F2A08000F0E480554ABE
S224013DE01368994201D3591EC9B2534802788A4200F0CE80514B017000211970BDE8F00135
S224013E007047A1423AD0D0780223012584423CD09D4200F299807FF476AF70E78842D8D93F
S224013E200146D6E78C42CBD92146C9E78842BED90146BCE78C42B1D92146AFE78842A4D908
S224013E400146A2E78C4297D9214695E788428AD9014688E78C427FF67DAF21467AE7884287
S224013E607FF66FAF01466CE78C427FF660AF21465DE788427FF651AF01464EE702200C46E3
S224013E800023451CD0788442C2D1681CC5B220461479A0427FF43CAF681CC5B2507984423F
S224013EA07FF440AF6C1CE5B29479A0427FF444AF681CC5B2D07984427FF448AF6C1CE5B293
S224013EC0147AA0427FF44BAF681CC5B2507A84427FF44EAF6C1CE5B2947AA0427FF451AF82
S224013EE0681CC5B2D07A84427FF454AF6C1CE5B2147BA0427FF457AF681CC5B2507B8442A6
S224013F007FF45AAF927B6C1C9042E4B27FF45DAF601CC0B298427FF660AF11465FE72B4649
S224013F202146012529E72B46014601250AE700BF94B1FF1F4CE802007C8DFF1FC4B1FF1FFD
S224013F402B4621460125F3E62B4621460125DBE62B4601460125E1E601462346012039E72F
S224013F602B4621460125F6E62B4601460125FBE621462B46012424E72B460146012505E7D0
S224013F802B46214601250AE72B46014601250FE70B480278531CDAB2530702707FF42EAF74
S224013FA0084801702AE7914238BF1146C9B216E701231D4669E701231846451C62E700BFCE
S224013FC0C4B1FF1F908DFF1F2DE9F04FB54C2378012B99B000F02981042B00F02A81FEF74E
S224013FE021FE002840F02981277805900646AE4CAE4D23682A68934200F015812968C81A3A
S224014000B0F5007F36D2DA05D10D01EBC1004200A74931F802C0ACF5006C1FFA8CFC881899
S22401402021F802C04188A1F5006291B241808288A2F500618AB28280C188A1F5006291B216
S224014040C1800289A2F500618AB202814189A1F5006291B241818289A2F500618AB28281CE
S224014060C189A1F5006291B2032FC18123D002F02DF92368023F022F1DD90133236001206B
S22401408026B18C4C22689A4200F02E818A4C23680F2B0DD9894D8A4E2A783678511CCBB2FD
S2240140A088492B700F2B8E5400F2CC800022226019B0BDE8F08F844884490268096889188E
S2240140C0B1F57A7F0160D8D3DF05FA0DDFF8E08102EBC2024FEA420948F6805708EB0902C4
S2240140E0C1F6FF7738F809B03F68B2F802A0B2F80490B2F80680B2F808C00297ADF81CC0B7
S2240141005789B2F80CC0ADF80CC0B2F80EC0704A12680692BDF91C200792BDF90C203FB230
S22401412008970392029F4BF2C812C1F6FF72D219079F0FFA8CFCCDF810C007F1080C089FFB
S2240141400FFA8AFA083700970AF1080A039F4FEA2A1A0FFA89F90837CDF80CA00FFA88F806
S224014160DDF800A0089709F10809049F4FEA291908F10808A1F57A71CDF804904FEA2818A0
S2240141804FEA2A194FEA2C1C01600837CDF81080CDF81CC00FFA8BFBCDF800904BF2C81984
S2240141A04FEA27180298039FDDF820A002990BF1080BC1F6FF794FEA2B1B09F800B05770E0
S2240141C00198049F9070D7700798009F10714FEA2A1C577182F806C082F8078048F68052FF
S2240141E0C1F6FF72069F08311160002F41D110297FF443AF374F384A3B6848F68059D05C75
S224014200364AFEF79FFAC1F6FF790699C9F800103868431C042B3B6023687FF42EAF2D4AD0
S2240142200021116029E700202AE71F461E460593DDE601261F460596D9E600202778059047
S2240142400126D4E6264F274EFFF704FD3A7811200121B218FEF776FA3878335C052B7BD99F
S2240142600F2B75D8012001F007F90021297001201CE718297AD028297FF4FFAE154F164803
S2240142803B684BF2C8121421C1F6FF7248F6805A5218C05CC1F6FF7AFEF754FA0021CAF80D
S2240142A00010B5E7888DFF1F848DFF1FBCB1FF1F948DFF1FB8B1FF1FF4B1FF1F8A8DFF1FA1
S2240142C0A4B1FF1F94B1FF1FC0B1FF1FB0B1FF1F8C8DFF1FACB1FF1FEC5C0300C8B1FF1F60
S2240142E0908DFF1FE4E7020025482D680178EB1AC1F50075AB420DD3224B234D1868411C7E
S2240143001960224B28681B781918D218296022600120BBE61B4D2A684AB11D4801780129A9
S22401432003D902201B4901F0C9FA00222A60164D2B68D8050BA9C00D10AA00F0C1F8059960
S22401434071B910A89DF83C10FEF734FD2268D8E7002001F091F888E7022001F08DF884E719
S224014360272011210BAAFEF7EDF9EAE70A4F0B483B680B4AC05C1421FEF7E4F948E700BFA8
S224014380898DFF1FB4B1FF1FFCB1FF1FF0B1FF1FEC00FF1FF05C0300ACB1FF1FEC5C0300B7
S2240143A0C8B1FF1F704700BF38B50D480D4C01F08FF90D4B1D686968AA68EB6828680FC460
S2240143C055F8100F6968AA68EB680FC455F8100F696803C40548BDE8384001F079B900BF12
S2240143E0D861030000B2FF1F48990300E4620300124B10B51C680121204600F08DF920B109
S2240144000F4A1378012093B910BD20460D49282200F052F904460028F2D10948017801290E
S2240144200AD90220084901F049FA204610BD074901F044FA012010BD204610BD4899030035
S224014440EC00FF1F00B2FF1F505D0300145D03004BF20020C1F6FF70704700BF0048704760
S22401446018B2FF1F0048704721B2FF1F10B50848084C01F02DF901F00FF8606910F07EF8A7
S224014480054808F061FB0028F5D10EF0ADFDF2E7AC61030058CDFF1F3C9A030030B44BF2B9
S2240144A02C234BF230254BF22824C1F6FF75C1F6FF74C1F6FF73286021601A6030BC7047E8
S2240144C02DE9F04F6D4BD3F800802DED028B4CF6CD4507EE108A08EB4804CCF6CC450027BB
S2240144E0A5FB0456B8EEC78A83B00F744FEA161BA2F1040A8946B8F1000F00F0B4804BF21C
S2240145002821C1F6FF714BF230220D68C1F6FF7208F1FF33A84211684FF0000C03F0010428
S224014520064600D3461B06EBC60201EB4206012336F81720434592B212FB02F692B262D038
S224014540002C40D01C18AC4228BFC5EB040404EBC40401EB440434F81740A4B214FB04661B
S2240145604BB112B28C2A7ADC8C3202DA22B28C3201DB0CF1010C01334345A2B223D142E031
S22401458022B28C2A01DC0CF1010C01331A18AA42A4B200D3521B02EBC20201EB420232F8B1
S2240145A0172092B212FB02664BB124B28C2C23DC8C3402DA14B28C3401DB0CF1010C013340
S2240145C0434592B21FD01C18AC4228BFC5EB040404EBC40401EB440434F81740A4B214FB86
S2240145E00466002BD1D012B28C2AC9DC8C32CADA22B28C32C9DBC6E714B28C2CDDDD0133AF
S224014600434592B2DFD1644607EE906AB8EEE70A80EE080AF1EEC00AF4EE600AF1EE10FA8A
S22401462024D1BCEEE01A10EE903A11EE101A4AF8043F29F81710A34594BF0023012399F80A
S224014640102003FA07F301371343082F89F810307FF451AF03B0BDEC028BBDE8F08F22B253
S2240146608C2A86DD87E744464646CDE7019016F0EDFE0198F0EE400AD3E700BF2CB2FF1F2B
S2240146804BF234204CF2557208B58021C0F20102C1F6FF7008F032F84FF29033C1F6FF73F6
S2240146A0186040F2AC00C1F6FF7008F0FDF8BDE80840FFF779BE00BF70B5124B1B78022B70
S2240146C082B004460E46154615D871B60E490F480A683346009221462A4608F0EFF861B69D
S2240146E038B100900A4900202A46234601F0E6F8012002B070BD03200649234601F0DEF87E
S224014700E3E700BFEC00FF1F90F3FF1FAC00FF1F885D0300685D030070B5124B1A780D03C1
S224014720022A82B00E46044614D871B60E490F480B682A46214608F023F861B640B10190C0
S224014740009400200A4932462B4601F0B7F8012002B070BD00900749032032462B4601F0E6
S224014760ADF8E2E7EC00FF1F90F3FF1FAC00FF1FFC5D0300C45D030049F67013C0F2030356
S2240147801B681818FFF798BF49F6701310B4C0F20303044618680A462018214610BCFFF75A
S2240147A08BBF00BF30B5114B114C1A6823684FF47A7505FB02F283B00546B2FBF3F00C46B9
S2240147C0FEF7B6FB0B4801788A1E012A01D903B030BD00231F20032101AA8DF804308DF8A5
S2240147E005508DF80640FDF7E7FFF0E7E8B2FF1FB4B2FF1FF0B2FF1F4BF2E423C1F6FF7379
S22401480001221A60704700BF4BF2F423C1F6FF7301221A60704700BF044B05491A68501C64
S22401482018600B6803B1704701F050BFECB2FF1F44B3FF1F2DE9F04182B002AD184C05F8C2
S224014840011D864617462068164E0021724698460FF0EAFC00233360012200232068294690
S2240148600FF0E2FB0828F7D0306818B930BF31680029FBD00C4D00222A6001232068414642
S2240148803A460FF051FC0828F7D02B681BB930BF2B68002BFBD0002002B0BDE8F08100BFC9
S2240148A058CDFF1FE4B2FF1FF4B2FF1FF0B585B0114D8DF80010074619460DF10100164663
S2240148C00E4C15F022F8286800213A460FF0ACFC00232360013601232868694632460FF0CA
S2240148E0A3FB0828F7D0206818B930BF20680028FBD0002005B0F0BD58CDFF1FE4B2FF1FE1
S22401490048F22003C4F2040330B55A694FF44045C4F204054FF2C004C4F20F0422F0400028
S2240149204FF4807158612962636943F4807289B062610A2002F028F9E06840F48071E1601D
S2240149400A2002F021F9E36843F48072E2600A2002F01AF9E06840F48071E1600A2002F06C
S22401496013F9E36843F48072E2600A2002F00CF9E06840F48071E1600A2002F005F9E3683B
S22401498043F48072E2600A2002F0FEF8E06840F48071E1600A2002F0F7F8E36843F4807267
S2240149A0E2600A2002F0F0F8E06840F48071E1600A2002F0E9F8E36843F48072E260444CBA
S2240149C020680FF0C7FA642002F0DEF8686A20F0807121F020036B622A6A22F0807424F0BB
S2240149E020002862002009F0D7FB0CF009FF14F01DFE13F079FB13F001FEFFF729FDFF2144
S224014A000546182202A814F0A1FF02A92846182214F06AFF2F4C2178002828D1002951D17D
S224014A2010F016FC12F0CAFD13F042FE0BF074FC0CF006FF2378284A0020022B107037D8FD
S224014A404FF4FA700A2128220AF074FC044630BB0CF0D2F80CF0E0F80CF0D6F81F490C6057
S224014A601F48092109B0BDE8304008F0BBB8012903D902201B4900F021FF032105F10C00A4
S224014A800BF0E8FD032128460BF0BCFE10F0ECFB0CF0B2F80CF0C0F80CF0B6F8C2E728230A
S224014AA0009311494FF4FA720A2300F0ABFFD7E72824009403200C494FF4FA720A2300F0AB
S224014AC0FDFEBDE70120094900F0F8FEA8E700BF58CDFF1FEC00FF1FF0B2FF1F44B3FF1F68
S224014AE0B0990300A45E0300D45E0300505E030070B504468AB000200D4609F04DFB792083
S224014B0009F076FA782009F021FA834B20461C6009F0C8F8204609F09BF94FF4FA6008F089
S224014B209FFF102008F0FCFF0DF10E067B4C002D40F09480304609F035F80DF1060009F0CB
S224014B40A3F80DF10A0008F069FF0DF1050008F0C5FF03A80AF0E4FB02A809F071F9217863
S224014B606E4D022900F2A780BDF8061044F24025C0F20F0595FBF1F00BF052FCBDF806206F
S224014B8095FBF2F00BF066FCBDF8063095FBF3F0634D0BF07BFC2A46286869682D7A04AB99
S224014BA003C352F80C0F1D705168127A07AD03C504A82A700CF02CFDBDF80A10C9030BF075
S224014BC027FC04A80CF024FD9DF80530D9030BF0BBFC07A80CF01CFDBDF80C20D1030BF017
S224014BE0BBFC2078022861D84E4D68690FF0C6FC0AF038FE002854D168690FF0BFFC21782F
S224014C00022941D804A80CF003FD0AF037FE46480BF0EAFA01200BF013F802200BF05CF96D
S224014C20BDF806000AF0DAFE2078022827D807200AF0B4FF082107200AF000FF01200AF0E8
S224014C40D3FF64200AF0E6FF012009F007FE00285CD1364B012119600AB070BD304608F034
S224014C60A1FF2078012806D902203149BDF80E302A4600F023FE284608F0BCFF5AE7032059
S224014C802C4900F01BFED2E703202B4900F016FE224B1A78022AB5D90320284900F00EFEF3
S224014CA0B0E70020264900F009FEA5E70320254900F004FE98E70320BDF806202249BDF825
S224014CC00A3000F0FBFD2A78022A7FF64DAF03209DF805301D49BDF8062000F0EFFD2B78C0
S224014CE0022B7FF641AF03201949BDF80820BDF80C3000F0E3FD287802287FF635AF0320B3
S224014D001449BDF80E2000F0D9FD2DE70020124900F0D4FDA0E700BFB4B2FF1FEC00FF1F63
S224014D2090E7020058CDFF1FA547010044B3FF1F305F0300D0600300A0600300C0600300C4
S224014D408460030070600300605F0300B05F03000460030050600300E860030032200021E7
S224014D60FFF7C6BE10B5174B174A18780021022882B011701CD84FF4FA700A2128220AF08D
S224014D80D9FA044650B90BF037FF0BF045FF0BF03BFF0E4B20461C6002B010BD28210091AE
S224014DA04FF4FA720A490A2300F02CFE0120F3E728240094032006494FF4FA720A2300F08B
S224014DC07DFDD8E7EC00FF1FF0B2FF1F44B3FF1FD45E03004BF24433C1F6FF73186870476C
S224014DE010B51C4C82B0207010B9FDF71BFF30B13220002102B0BDE81040FFF779BE164B5E
S224014E002070187802281AD84FF4FA700A2128220AF090FA044648B90BF0EEFE0BF0FCFE83
S224014E200BF0F2FE0D4A146002B010BD282300930B494FF4FA720A2300F0E4FDF4E7282134
S224014E400091032006494FF4FA720A2300F036FDDAE700BFF0B2FF1FEC00FF1F44B3FF1FEB
S224014E60D45E030070B51D4C82B00D461646207010B9FDF7D7FE30B12846314602B0BDE849
S224014E807040FFF735BE164B2070187802281AD84FF4FA700A2128220AF04CFA044648B929
S224014EA00BF0AAFE0BF0B8FE0BF0AEFE0D4A146002B070BD282300930B494FF4FA720A2339
S224014EC000F0A0FDF4E728210091032006494FF4FA720A2300F0F2FCDAE700BFF0B2FF1F1E
S224014EE0EC00FF1F44B3FF1FD45E03004BF24833C1F6FF7393ED000A704700BFF0B5B14DD4
S224014F00B14C2A6823689A42A5B000F0C88004A80DF10F01AD4E00900191002205AB08A8AF
S224014F200AA90BF037F832689DF80F70531C33600FB92D682560BDF8104014F0700F40F044
S224014F40088104F0080001B207AF002940F0168117AC05A90CA80AF089F90146002800F06D
S224014F6023810BF075FF3946204605AA0BF0BEF9974C394605AA0EA80BF0A0F9394605AA49
S224014F8011A80BF0A7F967680F9D22680E9E1098A368E91B8911B71ABA1101FB01F1C31A4E
S224014FA002FB0217991101FB0172B2F5803F894F14D93D6888480DB905683D600668AB1B18
S224014FC0022B03D80E9E0F9D109809E001F07EFB0E9E0F9D109826606560A06000243C6065
S224014FE0119ABDF95E10129BBDF962C0BDF966E0BDF96A70ADF87C101413139AADF87EC0E3
S224015000191376116D1140111313ADF880E0ADF88270ADF88460ADF88650ADF88800ADF870
S2240150208A40ADF88C10ADF88E3001F0D9FB002837D16A4B0E9A1E681A60B21A0F9D5F686B
S224015040674C10989E6867495D6001EE902A9FED662AF8EEE12A7F1B04EE107A94ED003AF5
S22401506062EE823AF8EEC45A361A03EEA33A05EE106A65EE824AF8EEC56A04EEA43A26EE77
S224015080827A0A68986007EE073A0132642A84ED003A0A6000F0B080012025B0F0BD0020B5
S2240150A0FBE752480178012978D0032976D0BDF98A20BDF98C30BDF98E0006EE902A07EE58
S2240150C0103A06EE100ADFED4A7AB8EEE60AF8EEC70AB8EEC61A60EE271A20EEA72A61EE52
S2240150E0272A14A8CDED141A8DED152ACDED162AFDF7B6FEBDF97C00BDF97E10BDF980208E
S224015100BDF9823005EE900A03EE101A03EE902A04EE103ADFED374AB8EEC35AF8EEE36A4F
S224015120B8EEC47AF8EEE57A25EE246A26EEA40A67EE240A27EEA41A1BA88DED1B6A8DED4B
S2240151401C0ACDED1D0A8DED1E1AFDF791FE0120A3E7059908A807AF0BF04EFC394606A8EC
S22401516008F01AFA079906980BF030FDBDF8104004F0080001B200293FF4EAAEBDF92850E1
S224015180BDF92A60BDF92C30059A179517AC20460021189619930BF0C3FBDAE61C201421DE
S2240151A01FAAFDF7CFFA82E7BDF93000BDF93250BDF934601790059A1895204619960BF08F
S2240151C069FCCEE6ECB2FF1FD8B2FF1FE8B2FF1F4CB3FF1FDCB2FF1F94F3FF1FF8B2FF1F5E
S2240151E048B3FF1FE0B2FF1F00008037F0B2FF1F0000803D0000803813EE100AFCF764F88A
S22401520002460B460B480C490C4E14F075FA85B200E030BF706807492A460DF061FD082851
S224015220F7D04FF4FA600023FF21236007F018FE012032E704B3FF1F0061030058CDFF1F7B
S22401524070B58AB007A904A809F062FB04460DF10A0008F051FE079ABDF80A300898099EC7
S22401526003FB00F103FB02F503A803FB06F308910993079508F014FEDDED045A9DED056AA6
S2240152809DED060ADDED037AF8EEE56AB8EEC67AF8EEC00A26EEA71A67EE871A27EEA02AB2
S2240152A0FDEEC12ABDEEE13AFDEEC23ACDED042A8DED053ACDED063A0BF09EFC0BF0ACFC92
S2240152C00BF0A2FC072C21D01F4E204A204B21482149224D14F0010F18BF324614F0020F0F
S2240152E018BF334614F0040F1D4C08BF2646009614F002FA84B200E030BF68681549224674
S2240153000DF0EEFC0828F7D00AB070BD154E114C124D0FCE0FC496E8030023460A0C43F8B8
S224015320040B07A819800321A2710BF093F904A803210BF067FA16240BF05EFC0BF06CFC34
S2240153400BF062FCD9E700BF4C5D03002061030028610300B8B2FF1F5461030058CDFF1F30
S224015360306103003C610300F0B583B0FFF770F800F10C052946044609F0CAFA07460DF1FA
S224015380020008F0B9FDBDF802306269E668216903FB02F003FB06F603FB01F121616061B0
S2240153A0E66001A808F07CFDD4ED005A94ED016A94ED020ADDED017AF8EEE56AB8EEC67A93
S2240153C0F8EEC00A26EEA71A67EE871A27EEA02AFDEEC12ABDEEE13AFDEEC23AC4ED002A0F
S2240153E084ED013AC4ED023A0BF006FC0BF014FC0BF00AFC072F1AD01A4D2E78012E03D9CD
S2240154000220194900F05AFA1822FF21204614F09DFAFEF7EDFF2A781AB10120134900F0A8
S2240154204DFA0FF015FF0126304603B0F0BDFEF7DFFF0321064628460BF00CF903212046D4
S2240154400BF0E0F90BF0D8FB0BF0E6FB0BF0DCFB044B19780129E7D90220054900F02EFAA4
S224015460E2E700BFEC00FF1F64610300746103008C610300704700BF044B1A78824204D015
S224015480034918700A6803480260704764B3FF1F94F3FF1F6CB3FF1F864B18682DE9F047A7
S2240154A030B3854B854A1C6811688C421FD384490C68FCB1834D1E682F68BE421AD2274673
S2240154C019681868257820F01F0011F0200F00F120000CBFFF2100211060042D00F2E680B3
S2240154E0DFE815F0DB00C800920047000C000020BDE8F08700270F600446E1E71E68196867
S2240155001868196848F21F53C5F2EB13A3FB06E54AF6AB262D09CAF6AA26A6FB05C67608D9
S22401552006EB4606AD1B04EBC504A3FB01E365684FEA131E322404FB1E113230401A95F822
S22401554001802978AD78106027B15E4B1C68844238BF14605C4C206807F03CFD60684146A9
S22401556007F038FDA068294607F034FD0120BDE8F08756481D68016866681868E468186877
S224015580691AC1F381135D1E012D8CBF35462546023B012B98BF264695F800E06C7896F855
S2240155A0008096F801C095F80290B6788900C9B2C1F1FF050EFB01FE04FB01F448F2810355
S2240155C005FB08EEC8F280030CFB054409FB01F106FB051183FB04C883FB0E5683FB01C3C7
S2240155E05D18A044C917E41776444FEAEE7CC4EBE813CCEBE616C1EBE5140130F1B25FFAE5
S22401560083F8E5B210609FE730481E68056861681868E4681868761BC6F301235D1E012DE5
S2240156208CBF0D462546023B012B98BF214695F800E06C7891F8018095F802A091F8009091
S22401564091F802C0F6B2C6F1FF050EFB06FE04FB06F448F281030AFB06F105FB09EEC8F225
S224015660800308FB05440CFB051183FB0EC683FB0458B3E71E681868186886F02005C5F399
S224015680401104EBC10320F01F005C682030217894F80180A578106056E766684FF0FF3011
S2240156A0317896F80180B57810604DE70025A8464AE700BF5CB3FF1F94F3FF1F6CB3FF1F49
S2240156C07CB3FF1F68B3FF1FD400FF1F60B3FF1F30B44FF29433C1F6FF734BF25C344BF2FC
S2240156E06C314BF260321D681B68C1F6FF74C1F6FF71C1F6FF7220600D60136030BCFFF775
S224015700CBBE00BF4FF29433F0B4C1F6FF734CF6CD451F681E684BF27C344BF26832CCF67F
S224015720CC454BF26C33C1F6FF74C1F6FF72A5FB01C5C1F6FF7307EBD507206017601E6052
S224015740F0BCFFF7A9BE00BF194B1A4A1968106049B11949002822D009681848184B0029EF
S22401576008BF184608E0144B88B918681549164A00280CBF10460846144A154B11681860F2
S22401578014481268016014490A60FFF785BE1968124A134B00290CBF10461846ECE70868A6
S2240157A0104B114A00280CBF10461846E4E700BF70B3FF1F78B3FF1F58B3FF1F00620300E4
S2240157C0746203009C620300B462030094F3FF1F5CB3FF1F6CB3FF1F60B3FF1F4C620300DF
S2240157E0F0620300C0610300C86203001A4B1B4918600A6850B1002A25D01949194B0868F4
S224015800194A00280CBF1046184608E092B91448164B0168164A00290CBF10461846154BB7
S22401582019681A68144B18601448016014490A60FFF732BE0A49134B0868134A00280CBFAD
S22401584010461846EBE70649104B0868104A00280CBF10461846E2E770B3FF1F78B3FF1F4E
S22401586058B3FF1F00620300746203009C620300B462030094F3FF1F5CB3FF1F6CB3FF1F92
S22401588060B3FF1FF06203004C620300C0610300C8620300024B186800B97047FFF7FCBD8E
S2240158A074B3FF1F4BF27433C1F6FF73186070474BF28033C1F6FF73187070470EB42DE931
S2240158C0F0434E4BC8B04FAC53F8200054F8042B058801944FF4807123460DF11E00ADF81D
S2240158E01C5013F02DFF044607A813F0C9FE444991F80080B8F1010F04D048B0BDE8F04351
S22401590003B070470334F8D446F6CB32CAF62872A2FB0426A71B06EB5703132C4FF0000926
S224015920C3F3001750DC02A807A9224613F0EDFF8DF81B8038201421133C02AA1326FCF7E3
S2240159403BFF002CD9DB97B1B4422CDC07AA911902A8224613F0D9FF8DF81B8038201421EC
S224015960133C02AA1336FCF727FF002CC5DB07A8132C00EB060702AD36DD38687968BA68AD
S224015980FB68B7F810E0BF7C8DF81B900FC5A5F800E0AF7038201421133C02AA1336FCF760
S2240159A00BFF132CD2DD07ADAF1902AD38687968BA68FB68B7F810C0BF7C8DF81B900FC5FA
S2240159C0A5F800C0AF70C9E707980899099A0A9BBDF82CE09DF82E608DF81B9002AD0FC576
S2240159E0A5F800E0AE70A5E707A98919224602A813F08BFF8DF81B80CCE700BF046303008D
S224015A0080B3FF1F0EB430B5C2B045AC054654F8042B4FF48071234602A8019413F090FEF2
S224015A2046F218310020C0F2030102AA2B46FFF745FF42B0BDE8304003B070474BF2747020
S224015A404BF6F4014BF28432C1F6FF71C1F6FF70C1F6FF722DE9F00F4BF2045C07460E464F
S224015A6014460023C1F6FF7C47F8043B46F8043B44F8043B6546043745F8043B0436043427
S224015A80043547F8043B46F8043B44F8043B45F8043B47F8043B46F8043B44F8043B45F822
S224015AA0043B47F8043B46F8043B44F8043B45F8043B47F8043B46F8043B44F8043B86B003
S224015AC045F8043BB8463746264601F5947945F8043B48F8043B46F8043BCDF8049001F593
S224015AE0987A01F59A7947F8043BCDF808A0CDF80C9001F59C7A01F59E79CDF810A0CDF8E6
S224015B001490C8F8003043604B603B6033602B605360CCF80430036243628362C3620363BF
S224015B2043638363C3630B624B628B62CB620B634B638B63CB63136253629362D362136377
S224015B4053639363D363CCF82030CCF82430CCF82830CCF82C30CCF83030CCF83430CCF8E5
S224015B603830CCF83C30036443648364C364036543658365C3650B644B648B64CB640B659F
S224015B804B658B65CB65136453649364D364136553659365D365CCF84030CCF84430CCF843
S224015BA04830CCF84C30CCF85030CCF85430CCF85830CCF85C30036643668366C366036771
S224015BC043678367C3670B664B668B66CB660B674B678B67CB67136653669366D366136797
S224015BE053679367D367CCF86030CCF86430CCF86830CCF86C30CCF87030CCF87430CCF8B9
S224015C007830CCF87C30C0F88030C0F88430C0F88830C0F88C30C0F89030C0F89430C0F802
S224015C209830C0F89C30C1F88030C1F88430C1F88830C1F88C30C1F89030C1F89430C1F8A7
S224015C409830C1F89C30C2F88030C2F88430C2F88830C2F88C30C2F89030C2F89430C2F87F
S224015C609830C2F89C30CCF88030CCF88430CCF88830CCF88C30CCF89030CCF89430CCF818
S224015C809830CCF89C30C0F8A030C0F8A430C0F8A830C0F8AC30C0F8B030C0F8B430C0F882
S224015CA0B830C0F8BC30C1F8A030C1F8A430C1F8A830C1F8AC30C1F8B030C1F8B430C1F827
S224015CC0B830C1F8BC30C2F8A030C2F8A430C2F8A830C2F8AC30C2F8B030C2F8B430C2F8FF
S224015CE0B830C2F8BC30CCF8A030CCF8A430CCF8A830CCF8AC30CCF8B030CCF8B430CCF898
S224015D00B830CCF8BC30C0F8C030C0F8C430C0F8C830C0F8CC30C0F8D030C0F8D430C0F801
S224015D20D830C0F8DC30C1F8C030C1F8C430C1F8C830C1F8CC30C1F8D030C1F8D430C1F8A6
S224015D40D830C1F8DC30C2F8C030C2F8C430C2F8C830C2F8CC30C2F8D030C2F8D430C2F87E
S224015D60D830C2F8DC30CCF8C030CCF8C430CCF8C830CCF8CC30CCF8D030CCF8D430CCF817
S224015D80D830CCF8DC30C0F8E030C0F8E430C0F8E830C0F8EC30C0F8F030C0F8F430C0F881
S224015DA0F830C0F8FC30C1F8E030C1F8E430C1F8E830C1F8EC30C1F8F030C1F8F430C1F826
S224015DC0F830C1F8FC30C2F8E030C2F8E430C2F8E830C2F8EC30C2F8F030C2F8F430C2F8FE
S224015DE0F830C2F8FC30CCF8E030CCF8E430CCF8E830CCF8EC30CCF8F030CCF8F430CCF897
S224015E00F830CCF8FC30C0F80031C0F80431C0F80831C0F80C31C0F81031C0F81431C0F8FA
S224015E201831C0F81C31C1F80031C1F80431019DDDF808A0C1F80831C1F80C31C1F8103139
S224015E40C1F81431C1F81831C1F81C31C1F82031C1F824312B60C1F82C31049DCAF80030EA
S224015E60DDF80CA0C2F800314BF67424CAF80030C1F6FF74C2F80431C2F80831C2F80C31E2
S224015E80C2F81031C2F814312B60C2F81831C2F81C31CCF80031CCF80431CCF80831CCF8BE
S224015EA00C31CCF81031CCF81431CCF81831CCF81C31C0F82031DDF81490C0F82431C0F82C
S224015EC02831C0F82C31C0F83031C0F83431C0F83831C0F83C31C9F80030C2F82031C2F81C
S224015EE02431C2F82831C2F82C31C2F83031C2F83431C2F83831C2F83C31CCF82031CCF8C0
S224015F002431CCF82831CCF82C31CCF83031CCF83431CCF83831CCF83C31C0F84031C0F85B
S224015F204431C0F84831C0F84C31C0F85031C0F85431C0F85831C0F85C3101F5927BC1F8C8
S224015F404031C1F84431C1F84831C1F84C31C1F85031C1F85431C1F85831C1F85C31C2F87A
S224015F604031C2F84431C2F84831C2F84C31C2F85031C2F85431C2F85831C2F85C31CCF849
S224015F804031CCF84431CCF84831CCF84C31CCF85031CCF85431CCF85831CCF85C31C0F8EF
S224015FA06031C0F86431C0F86831C0F86C31C0F87031C0F87431C0F87831C0F87C31C1F822
S224015FC06031C1F86431C1F86831C1F86C31C1F87031C1F87431C1F87831C1F87C31C2F8FA
S224015FE06031C2F86431C2F86831C2F86C31C2F87031C2F87431C2F87831C2F87C31CCF8C9
S2240160006031CCF86431CCF86831CCF86C31CCF87031CCF87431CCF87831CCF87C31237093
S22401602006B0BDE8F00F7047F8B5324D2C780B2C2DED028B59D8B0EB410F56DB00EE901AB6
S22401604007EE100AF8EE606A9FED2B1AF8EE477A66EE811A80EE270A284E294FC1EEA72A07
S224016060F7EE008AB0EE082A12EE900AB0EE688A00EE428AFBF728F941EC100B14F0E0FFB9
S22401608051EC100BFBF736FC38EE086A03EE100A26EE034A73EE033A78EEC44A48EE084AE0
S2240160A0F0EE005A35EEE35AF8EE007A84EE857A14491548154AA300C018F618C918D21804
S2240160C00134FB182C7028EE488A67EE270A80ED007A60EE836A86ED007AC1ED006A82EDD2
S2240160E0004A83ED008A002000E00120BDEC028BF8BD00BF74BAFF1FDB0FC94084B6FF1FF4
S22401610044B7FF1FB4B6FF1FE4B6FF1F14B7FF1FF8B55F4D2C780B2C2DED048B02D8B0EBE5
S224016120410F03DA0120BDEC048BF8BD02EE101A07EE100AF8EE428AF8EE477ADFED550A71
S22401614088EEA70A544F554EB6EE008A20EE201A61EE088A38EE680A15F014F9B0EE409A53
S22401616038EE880A15F00EF9C9EE001A4C484D494D4AA300FF18F618C918D2180134C31820
S2240161802C700020DFED496A9FED493ADFED492AF0EE665A41EE835A71EEA13A21EEA62AAD
S2240161A021EEA25A9FED446A9FED444A33EEA27A21EE840A61EE860A41EE825A01EE857AC8
S2240161C0F7EE004A75EE247ADFED3D6A41EEC07A21EEA01A11EEE15A01EEE67A75EEC22A0C
S2240161E076EE421A31EE423A9FED362A82EEA70A71EE815A73EE063A35EE425A87EE277A81
S224016200C5EEA70A83EEA74A85EE271ADFED2E7A60EE271A77EEC76AF0EE675A24EE276A23
S22401622020EEA73A41EE676A47EE675A71EEA02A30EE030A72EE860A35EEC15A31EE837AD5
S22401624036EE001A77EEE61A30EEA72A34EE073A72EE017A31EEC54A37EE836A74EEC44AB8
S224016260F1EE666AC6EE242AF1EE453AC0EEA25A83EE220AC1EE220AC7ED005AC6ED000A1C
S22401628081ED000AC2ED006AC3ED003A4BE700BF74BAFF1FDB0FC94084B6FF1FB4B6FF1F6D
S2240162A044B7FF1FE4B6FF1F14B7FF1F4290933E429093BE0B702D3F4290133E980082BE76
S2240162C0980002BF9800823E000000002DE9F00FBA4B8AB0197804900022880009910690B4
S2240162E00792099D002D00F05881049CDDF81C902688B34BDFF8CCA2DFF8CC82DFF8CCC2C7
S224016300DFF8CCB202934BF274774FEA890031B2C1F6FF773F1805EE901A97ED006AD3EDF1
S224016320007AF8EEE56A9AED007A4BF6F402C1F6FF7226EE270A161806EE870AD6ED000A83
S22401634098ED001A4BF28435C1F6FF752D1801EE200AD5ED001A9CED002A4BF20454C1F63E
S224016360FF74241801EE820A0699D4ED002A9BED005A04394FF00409039105EE220A16EE41
S224016380101ACDF81490B146384649F8201B16EE901A2A4640F8201B10EE101A42F8201B45
S2240163A00399CDF80490BDEEC03A11EE909A2346C1F3800143F8209B039113EE109A0499A4
S2240163C0A1F8009006994FF0040989458DED083A00F0E3800399002900F0EC80DDF8109030
S2240163E0B9F80010ADF8141002990431D1ED003A0291BDF9141007EE901A97ED086A0AF148
S224016400040A9AED004AF8EEE76A66EE230A08F1040846EE840A96ED087AD8ED004A0CF107
S224016420040C44EE870A95ED081ADCED005A0BF1040B41EE250AD4ED081A9BED000A40EEB0
S224016440210A4FF00809BDEEE02ACDF81490C5ED080A12EE109A049D84ED081A86ED086A16
S224016460019CC7ED086AA5F80090DDF81890082120342030203220334945019400F08D8017
S224016480DDF808902146049E37883CB203EE904AD0ED002A99ED015A9AED013AB8EEE34AAB
S2240164A062EE854A44EE034A91ED000AD8ED015A0D4645EE804A12EE904A92ED006ADCEDB4
S2240164C0017A45F8204B46EE274AD3ED006ADBED010A0646089514EE105A1C4646F8205B81
S2240164E040EEA64A16EE105A44F8205BBDEEE47A1746029414EE904A049D47F8204B17EE2B
S224016500104A2C802D882CB202EE104A90ED081AD9ED021A9AED025AF8EEC22A21EE213AF2
S22401652002EE853AD1ED083A98ED024A04EE233AD2ED084A9CED020A04EE803AD3ED085A12
S2240165409BED026A06EE253A059DFDEEC37A083517EE904A81ED081A8DED037A0595C0ED3A
S224016560082A04980899C3ED084A82ED083A029B0480069C20312033A5420AF1080A09F19E
S224016580080908F108080CF1080C0BF1080B06F1200007F120027FF476AF079B049A5D1C39
S2240165A0901C082D079504907FF49BAE0AB0BDE8F00F7047DDF80890019964E774BAFF1F55
S2240165C0B4B6FF1F84B6FF1FE4B6FF1F14B7FF1F44B7FF1F38B54FF44043C4F20403354C2A
S2240165E0596A227821F0807020F020055D62196A21F0807020F02005012A1D6210D90220D5
S2240166002D49FFF75BF92378012B09D94FF47041C4F2070102200A784B782849FFF74EF944
S22401662048F22005C4F2040525486A6922F480236B61FFF74DF806F0FBFAFEF721F8FEF748
S22401664019FF0120FFF72EF9FCF724FF00F0FCF8FCF73EFAFDF736F9FBF7A6FFFEF750F9C1
S224016660FCF77CFA2478022C1FD800F0B9F8C0B9144DFBF7C1FF044600F024F90443FEF72A
S2240166803DFC0443FDF7A0FC0443FEF705FF044300F028F8044300D130BF68690DF06EFF0B
S2240166A0E7E70020FFF7FEF8E2E703200649FFF705F9DAE7EC00FF1F4C6303006463030084
S2240166C0E462030058CDFF1F986303004FF29432C1F6FF724BF678231068C1F6FF73186006
S2240166E0704700BF30B52B4B1878012887B01DD029492A4C22680B68D01A00EB800147F272
S2240167002F52B2EB410F11D2254D2B78022B10D8684603A908F0FCF8830714D42C786CB977
S2240167202048FEF7D5FFFEF7B7FEFCE7002007B030BD03201C49FFF7C1F8E9E701201B4945
S224016740FFF7BCF8ECE7FEF70DFB1948FEF7C0FF0021184806F010FA01210A46164806F05D
S224016760A5F9206821680A1A092A04D830BF2368191A0929FAD92878012803D902200F4960
S224016780FFF79CF8002104200A460CF06BFC0120CDE700BF75BAFF1F78BAFF1F94F3FF1F9B
S2240167A0EC00FF1FAC610300BC630300D8630300E4620300149A0300B099030008640300A4
S2240167C04FF29431C1F6FF714BF678224BF675230968C1F6FF72C1F6FF7311601870704760
S2240167E04BF67C23C1F6FF73187870474BF67D23C1F6FF73187070470F4B187810B500B992
S22401680010BD0E4806F0A0F9044640B10C4B0D48022200211A70BDE8104006F07DB9084A97
S22401682008480121117006F077F906482146BDE8104006F0A1B900BF7CBAFF1F3C9A030013
S2240168407DBAFF1FDC990300F8B5194806F07CF9044678B9174B184E184802251D703570F0
S22401686006F072F90746C0B115483570214606F053F90CE00F4B104A1148002401211C707D
S224016880147006F049F90E48214606F075F908480121BDE8F84006F03FB90122114608480E
S2240168A0327006F039F90648394606F065F9EEE71C9A03007CBAFF1F7DBAFF1F3C9A0300D7
S2240168C0DC990300F8B52B4D2B4C2878227890424AD0012810D0022802D020700120F8BD0D
S2240168E0EAB1012A42D0FCF739F92448FEF7F0FE287820700120F8BDFEF734FAFDF7FAF837
S224016900FCF782F900211E4806F036F91D48FEF7DFFE0CF069FB287820700120F8BDFEF7C5
S224016920E5FA10EE100AFAF7CFFC02460B4616481649174F12F0E0FE86B200E030BF78681B
S224016940114932460CF0CCF90828F7D0C82000F01BF90F4B002158680CF05CFAFEF702FA3D
S224016960FBF75CFD2278BCE70020F8BDFBF734FDB9E700BF7DBAFF1F7CBAFF1FB462030070
S224016980149A0300E861030080BAFF1F1464030058CDFF1F054B1868016829B100F5805006
S2240169A00268002A18BF0020704700BF58990300F8B52C4B1C6804F5805107460A68EAB908
S2240169C0294D2878022826460C461CD830460121FDF7A2FE08BB2B78022B28D8304639460B
S2240169E01022FDF769FE00282CD1297802292ED820460121FDF790FEA0B9F8BD1A4D2878EE
S224016A0002280E46E2D903201849FEF757FF30460121FDF781FE0028DDD01449FEF7F2FF45
S224016A200120F8BD1249FEF7EDFF0120F8BD03201049FEF743FF304639461022FDF73CFE60
S224016A400028D2D00B49FEF7DDFF0120F8BD03200749FEF733FF20460121FDF75DFE0028D2
S224016A60CBD0DFE758990300EC00FF1F2C6403006C640300446403006846002220F00701B8
S224016A80C4F204028D4601B510684FF29433C1F6FF7340F0800111601A68501C186006F084
S224016AA009FAFEF7F7FEFDF77DFCBDE801408546704700BF49F66013C0F20303186808302D
S224016AC0704700BF0D4B70B41D680D4E2B46344653F8080F59689A68DB680FC42B4653F8FC
S224016AE0180F59689A68DB680FC40649288D012220800A60304670BC704700BF609903004B
S224016B00A0BAFF1FC8BAFF1F70B5194D286882B070B1184B1C682268204601210092FDF76A
S224016B20FBFD50B1144A11780120E1B902B070BD1249FEF7C3FE0120F8E704F1080010496E
S224016B402822FDF7B9FD06460028EBD1009802A9431C41F8083D204669460822FDF7ACFD0F
S224016B602E603046E2E70749FEF7A8FE0120DDE7C8BAFF1F60990300EC00FF1F98640300CD
S224016B80A0BAFF1FF0640300F8B5094D0746A8680DF006FCC7190446BEB2A8680DF000FC1E
S224016BA0844201D2B842F8D3B042F6D3F8BD00BF58CDFF1F4CF65853C1F6FF7310B50446DA
S224016BC098680DF0EDFB206010BD00BF90ED007AD0ED017AB4EEC70AF1EE10FA8CBF0023C5
S224016BE00123B4EEE70AD0ED020A2DE9F041F1EE10FA03F1010598BF2B46B4EEE00A90ED14
S224016C00031AF1EE10FA03F1010798BF3B46B4EEC10AD0ED041AF1EE10FA03F1010598BF12
S224016C202B46B4EEE10A90ED052AF1EE10FA03F1010798BF3B46B4EEC20AD0ED062AF1EEAD
S224016C4010FA03F1010598BF2B46B4EEE20A90ED073AF1EE10FA03F1010798BF3B46B4EEB7
S224016C60C03A5D1C2DED028BF1EE10FAA8BF2B46012B88B004460D46904640F38A800821F6
S224016C8001F08EFE94ED004AD4ED014A94ED025AD4ED035A94ED046AD4ED056AD4ED063A7F
S224016CA094ED077AC4EE007AB8F1010FC4EE800A85EE001AC5EE801A86EE002AC6EE802AD5
S224016CC083EE803A87EE000ACDED007ACDED010A8DED021ACDED031A8DED042ACDED052A0D
S224016CE08DED063A8DED070A53DD203528460822694601F08DFE9FED288AB5EE400AF1EEF7
S224016D0010FA4FF000074FF00204C8BFB0EE408AC8BF01272035444508F0010033D080B12F
S224016D2028460822694601F073FEB4EEC80AF1EE10FAC4BFB0EE408A2746013420354445DC
S224016D4021D028460822694601F062FE05F12006B4EEC80A082230466946651CF1EE10FA5B
S224016D60C4BFB0EE408A274601F052FEB4EEC80AF1EE10FA02DDB0EE408A2F466C1C44454A
S224016D8006F12005DDD1384608B0BDEC028BBDE8F0810027F7E700BF000000002DE9F8438C
S224016DA000F538530646986800280F462ADD06F53858002508F1080805F1F00006EB40139A
S224016DC005F1700453F8049F06EB4414D3F804C09868D968C4F80490C4F808C0E0602161A6
S224016DE05869D3F810C09969DB69C4F814C0A061E1612362D8F8000001350434A842DBDCB4
S224016E00022A18D0002FB8BF7F4297B10028C7F108070EDD06F538550024083506EB4411A0
S224016E2001F60460394602F0CDFF2B680134A342F4DCBDE8F8830028E4DD002406EB4412C3
S224016E4002F6046002F0AEFFD8F800000134A042F4DCD7E700F53853F0B49968002921DD70
S224016E6000F538570021083701F1F00200EB421301F1700453F804CF00EB44125E689D6874
S224016E80DC68C2F804C09660D56014611E695D699C69DB6956619561D46113623A680131C9
S224016EA08A42E1DCF0BC70472DE9F04F534C2DED028B246883B0074690461D4664B903F5EB
S224016EC0D3535E68002E0ADD013E5E60204603B0BDEC028BBDE8F08F494B1868F7E7D5F87C
S224016EE09CEDEB6F45F256560EF10102C5F2555686FB02C6A6EBE2760EF5597C06EB46061B
S224016F00921B45F82C10C5F89C2D05F55961032201F0B6FB064620B1C5F8404D4FF6FF7029
S224016F20D5E708F5385A08F604613846DAF808209FED340AFFF74AFEDAF80410019000297D
S224016F4020DD08EB800908F5385BDFED2F8A05F10C0409F104090BF1040B94ED008A28EE64
S224016F60288A99ED000AA4EC018A01F097FEDBF8003038EE000A0136B34204ED010A09F5CF
S224016F800079EADC019A29462A60404600F03EF8D5F8341D034631BBC5F8403D3C6878685B
S224016FA0B968FA68C5F8444DC5F8480DC5F84C1DC5F8502D3C697869B969FA69C5F8544D1F
S224016FC0002BC5F8580DC5F85C1DC5F8602D05F644550FDBDAF804004FF6FF718342B4BF9D
S224016FE01846084673E7384641462A4601F064F80346D1E74FF6FF7069E700BFD0BAFF1F57
S224017000CCBAFF1F000048436666663F2DE9F04100F538532DED028B0F465968002988B0E5
S22401702040F3F38000F538589FED798A07F108066D46002408F104080436B0EE000AD6ED09
S224017040000A14F0FFF9D8F8002010EE100A0134A24245F8040F38EE008AEDDC002A40F3DD
S224017060D480DDED017A87EE880A01AB03EB8205E91A02AB081FAB42C0F3800403ED010A53
S22401708019D044B1D3ED000A80EE881A03ABAB4203ED011A0FD0D3ED001A81EE882A194653
S2240170A0A1EC012AD3ED012A82EE883A0B46A3EC013AAB42EFD1012A40F3A78097ED037AA7
S2240170C0D7ED043AB4EEE37AF1EE10FA4ED400230124022A1D464ED007F10C003946C61848
S2240170E0143196ED004AD1ED004AF4EEC44AD61EF1EE10FA06F001067CDD2C46B0EE644A8F
S22401710002250323934236DA0EB3043191ED005AB4EEC45AF1EE10FA0E4660DD10E096EDBC
S224017120006AF4EE465AF1EE10FAC8BF1C4691ED015AB4EEC45A01330431F1EE10FA4EDD75
S2240171402C46B0EE454A1D460133934213DAD1ED015AF4EEC45A0431F1EE10FA00EB840685
S224017160DDDD2C46B0EE654A1D46E0E7042300240125022AB0D108AA02EB850010ED070A16
S22401718001F08CFD08AB03EB8404B0EE408A14ED070A01F083FDF2EE0E0AF0EE408AB0EE1D
S2240171A0C80A13F065FE78EE687AB0EEC00A87EE808AD7F8401D174BC1EBC102501903EB0E
S2240171C08001D1ED000AB4EEE08AF1EE10FA4CBF0020284608B0BDEC028BBDE8F08100EBE3
S2240171E08406D6ED008AB4EE685AF1EE10FAC8BF1C46A9E700EB8403D3ED006AF4EE664ABE
S224017200F1EE10FAC8BF02247BE700242546B2E7000000001C650300034601F6A450194631
S22401722001F08ABEF0B44F1E012F84B063DD051D2C4615ED017AF4EC017AB4EEE77A0339AF
S22401724001250026F1EE10FA01EA050100F181800225BD4251D061B114ED011AF4EC011AA0
S224017260B4EEE11AF1EE10FA00F183800135BD4243D02146B1EC015A54ED015AF4EEC55A4A
S224017280F1EE10FA15D594ED016AB4EEC65AF1EE10FA0EDDB4EEC05AF1EE10FA09DB022EDA
S2240172A004DC04AC04EB860444F80C5C0136032E21DC0C46F4EC017A11ED017AB4EEE77A8D
S2240172C00135F1EE10FAD1D5D1ED010AF4EEE07AF1EE10FACADDF4EEC07AF1EE10FAC5DBA9
S2240172E0022E05DC0DF1100C0CEB860141F80C5C0136032EBADD002028E0012EFBDD019C73
S224017300029900EB840400EB810194ED000AD1ED002AB4EEE20AF1EE10FAD4BF0024012426
S224017320022E84F0010135D104A800EB810100EB840451F80C1C54F80C4C8C42D4BF146025
S224017340116001208C42ACBF1C60196004B0F0BC7047D4ED000AF4EEE07AF1EE10FA7FF7EA
S22401736077AFF4EEC07AF1EE10FAA4BF01952E466EE794ED002AF4EEC21AF1EE10FA7FF752
S22401738075AFF4EEC01AF1EE10FAFFF66FAFAE42A8DDADE704AF07EB810504AF55F80C1CAF
S2240173A0039D07EB840400EB810C00EB85079CED004AD7ED006A54F80C4CF4EEC46AF71EF4
S2240173C000EB840CF1EE10FADCED003A07F0010738DCF4EEE36AF1EE10FA02DDF0EE663AB8
S2240173E02C460325B542A8D0A7B1049F00EB870C9CED003AB4EEC43AF1EE10FA2EDCB4EE0D
S224017400E33AF1EE10FA02DDF0EE433A3C460135B54292D001AF57F8257000EB870CDCED3A
S224017420004AF4EEC44AF1EE10FA23DDB4EEE34AF1EE10FA02DDF0EE443A0C46B0EE644A92
S22401744039461FE0B4EEE34AF1EE10FAC4BFF0EE443A0C46B0EE664A2946C2E7B4EEE34A8A
S224017460F1EE10FAC4BFF0EE443A0C46B0EE434A3946CCE7F4EEE34AF1EE10FA02DDF0EEDA
S224017480643A3C46013501AF57F82570AEE700BF2DE9F04F00F5D2542DED0A8BE368042B0F
S2240174A0ADF5017D064606DC00200DF5017DBDEC0A8BBDE8F08F0F313229B4BF89464FF05A
S2240174C032096269A368C9F10107B818C21892FBF3F106F6A45503FB112128460CAB4A46DE
S2240174E0039701F029FF0DF1300C0CEB800393ED007ADFEDBE7AB4EEE77AF1EE10FAD3DC86
S2240175006069A3683A18D21892FBF3F103FB112128464A4614AB02F057F89FEDB50ADDEDA1
